:020000041000EA
:1000000000200008EB0000100D0000004D01001062
:1000100000000000000000000000000000000000E0
:100020000000000000000000000000004901001076
:10003000000000000000000049010010490100100C
:100040004901001049010010490100104901001048
:100050004901001049010010490100104901001038
:100060004901001049010010490100104901001028
:100070004901001049010010490100104901001018
:1000800010B5064C2378002B07D1054B002B02D06E
:10009000044800E000BF0123237010BDB003000836
:1000A0000000000018140010044B10B5002B03D002
:1000B0000349044800E000BF10BDC0460000000036
:1000C000B4030008181400100230800803D0013077
:1000D0000238FCD1C046C0467047EFF3108072B6BC
:1000E000704780F3108870477047FFF7FDFF72B6C6
:1000F0000F4C104DAC4209DA21686268A368043BDA
:1001000002DBC858D050FAE70C34F3E70A490B4A2F
:100110000020521A02DD043A8850FCDC08480949E4
:100120000860BFF34F8F00F085FE00F02FFEFEE762
:10013000241400103C140010B0030008C805000887
:100140000000000808ED00E0FEE7FEE700B504202F
:100150007146084202D0EFF3098001E0EFF3088016
:10016000043000F021FCFEE7014B18607047C046E8
:10017000C4050008044B1B681A00AC3212881B6AC5
:100180005043C0187047C046C40500081D4B984234
:100190000FD010D840282FD005D8002830D01028F4
:1001A00028D019481EE0802828D080235B00984280
:1001B000F7D1144816E0154B984214D008D8A02364
:1001C0001B0698421CD0124B9842EAD1A0200BE0AB
:1001D000104B98420AD0104B984209D00F4B9842CE
:1001E000DFD10F487047A420C003FBE70D48F9E7B3
:1001F0000D48F7E70D48F5E70D48F3E70D48F1E73F
:100200000020EFE706005200FF005200010000F05E
:10021000090000A0040000F0050000F0030000F059
:100220000100520002005200030052000100500081
:10023000020050000500520010B50020FFF79AFFA1
:100240000A4B1C682300B0331B68C0180368002BDE
:100250000ADB074B1868FFF799FF012263689A6071
:100260009A68002AFCD110BD0248FCE7C4050008CA
:10027000CC03000802005000064B1B68B0331B681B
:10028000C3181B68002B03DA89B241600020704755
:100290000148FCE7C405000801008A000368002B40
:1002A00004DA89B2C2608160002070470048FCE730
:1002B00001008A00064B1B68B0331B68C3181B681B
:1002C000002B03DAC36800200B6070470148FCE78D
:1002D000C405000801008A00024B1A68002A00D1F8
:1002E00018607047E0030008F0B52C246043124CFE
:1002F0001F0024681E0A2018FF24274034400F4E98
:100300001B0C356807602E6A44608360AC352D880D
:1003100080346F4364013419BF191E0433430761ED
:100320004461A36000238361059BC2610162002BCD
:1003300001D01B888381F0BDE0030008C4050008DC
:10034000F0B5836885B002AD2B80154B02681B6841
:10035000066A9B8E476A9B186B8043680095826A89
:10036000C16A040003930369C068FFF7BDFF002161
:100370003B000A0000913000FFF7B6FF216B280018
:1003800000F0C6FA0022AB5E002B06DB1F221340F2
:100390001E3A9A401300034A136005B0F0BDC046F0
:1003A000C405000800E100E0F7B52C25134C6843B4
:1003B000266869433418256901937118002D19D0F6
:1003C0008869002818D12E68002E15DA6768012484
:1003D00026004B689E40B44613689EB263461B04D9
:1003E0001E431660EA608C61BC40019BA4B24B6264
:1003F000AC60FEBD0248FCE70248FAE7E0030008F3
:1004000004028A0007028A0073B5002642690400CC
:10041000D56801962B0CB34221D01B0413601368DE
:10042000194B00691B68B0331B68C3181B68B342C3
:1004300015DA01A9FFF73EFFB0420CD10198E2693D
:1004400003681E0CDBB29A4205D9226A9B009B58B6
:10045000002B00D0984731002069FFF70DFFADB2A7
:10046000002D09D063691D6000251B68636AAB42DB
:1004700005D098476562A56163691B6873BDA36A6F
:10048000002BF8D09847F6E7C40500082C2310B5D8
:100490004343034A1068C018FFF7B6FF10BDC046BB
:1004A000E0030008F8B5194B0F001B681A002E3244
:1004B0001278824227D9002925D01F250A681540C5
:1004C00021D11900AC310C88114E60431C6AD2084E
:1004D000041929007868346000F00CFF290020001E
:1004E000FFF7CAFE3A0029003068FFF7D7FE041E66
:1004F00007D101003068FFF7BFFE03002000002B8A
:1005000000D00448F8BD0448FCE7C046C405000814
:10051000E403000801018A0003018A0010B5002AE3
:100520000DD1002914D10B4B1A681300AC331B8872
:100530005843136AC018084B1860080010BD002902
:1005400006D0064B196019005A60FFF7ABFFF5E7BC
:100550000348F3E7C4050008E40300087803000833
:1005600003018A00F7B5184F04003B680191DE686B
:100570003368834226D90025A94202D1FFF7ADFD99
:10058000050038680368002B1ADA1F220123224075
:10059000934064097268A4001419226813420DD0B4
:1005A0009A43226000240021FFF766FE019B002B86
:1005B00002D12800FFF795FD2000FEBD034CF2E7B5
:1005C000034CF3E7034CF7E7E4030008020188005B
:1005D0000301880004018A000A4B1B68DB681A6863
:1005E00082420DD959681F23420918401E3B83409F
:1005F000920050581840431E9841034BC018704752
:100600000248FCE7E40300080001880004018A00B6
:10061000A6220549D2008B580220DB439B0702D05B
:1006200001238858184070470000264010B5FFF796
:10063000EFFF0023022801D1014B1B68180010BDF9
:10064000E8030008094A83009B18D02292009858BA
:1006500007221040042807D1C022920098581F2377
:1006600003408020400018437047C04600002640E9
:1006700010B5FFF7E7FF02281CD005D8002814D0DA
:10068000012814D0002011E01223FF33984214D027
:100690001423FF33984218D0033B9842F2D10C4AFE
:1006A0000C4BD058C00FC00300E00B4810BD0B4BE3
:1006B0001868FBE7FFF7BAFFF8E7094B186904234E
:1006C0001840F3D080200002F0E7014A054BE8E72C
:1006D000000026400C05000000127A00EC03000820
:1006E000000027403C050000B023154ADB00D3582A
:1006F00010B59903DB01DB0F890BC371114B01604E
:10070000D3580F24D904DB01DB0D0381B123DB00B7
:10071000D358C90C818019002140817219092140E8
:10072000C172D9029B009B0F8373074BC90CD3582E
:1007300081815A05DB01520FDB0D8271038210BDEE
:1007400000002640840500008C05000010B5104B09
:10075000421E1B683B331B78934216D97F221F240D
:100760008030FF300B4B8000C3581A400A701A0CBF
:100770002240180A8A701A012040E2404870002086
:100780009B009B0FCA700B7110BD0348FCE7C0466D
:10079000C40500080000264001004A00F0B587B0FB
:1007A0000400FFF765FF0600002C34D101AD1422D0
:1007B0002100280000F09EFD2800FFF795FFB023E0
:1007C000254ADB00D358002B03DAAC7B023C631EC6
:1007D0009C41EA79019F531E9A41A8880132002C5E
:1007E00016D00023190000F06FFC00230C00050058
:1007F0003A003000190000F067FCE6076A0832434F
:100800006308801859412A00230000F03DFC0600CF
:10081000300007B0F0BD114B1B683B331B78A3427F
:10082000F6D301AD05220021280000F063FD200071
:1008300029008034FFF78AFFFF34074BA400E358F8
:100840000024A34203DA2C79023C631E9C412F78DA
:100850006878AA78C3E7C04600002640C4050008AF
:10086000E02210B50124094B80009200C018835883
:1008700080589B069B0F9C400F231840FFF78EFF6C
:1008800063081818210000F073FB10BD000026401B
:10089000144B30B51A680724130028331B781F2B1C
:1008A00015D883081D00A5432C1E0FD1033420400A
:1008B000A040814012689B002032D3180A00FF211B
:1008C00081401C68624011406140196030BD802346
:1008D00020401B06184380239B011268C918890019
:1008E0008850F3E7C4050008064B9A6803000648E1
:1008F00010339B00824202D1985899507047034AA6
:10090000D058FBE700ED00E00000000800000010F8
:10091000F8B506000D0000283AD00023C05E00287C
:1009200028DB7188FFF7B4FF0024FF2203279446D9
:100930000023F05E716883B21F40FF006646BA4034
:1009400089013140D243B940002815DB114E83089C
:100950009B009B19C026B6009F593A4011439951FC
:100960000D4B9A680D4B9A4202D12900FFF7BCFF4C
:100970002000F8BD0A4CD8E70F263340083B064E4E
:100980009B089B009B19DE6932401143D961E7E760
:10099000034CEDE700E100E000ED00E0000000089E
:1009A00001005600FEE7000002680A4B10B51A600D
:1009B00042685A6082689A60C268DA6002691A61A5
:1009C00042695A6182699A61C269DA61FFF7EAFF96
:1009D00010BDC04690030008B0235B059A89002A29
:1009E00002D0988980B2704780204000FBE7000069
:1009F0007FB5274B86000D00F458042901D001294A
:100A000027D100200FE0A3682B420BD1E368290017
:100A10001A685B6802920193039302A823689847BF
:100A20001C4B1C606469002C0BD01B4B9842EAD114
:100A3000012DE8D1174B18481A68184B9A5104B089
:100A400070BD012DFBD1144B9842F3D0134B9C5138
:100A5000F5E7022906D10F4B1B68181EEFD01C6961
:100A600003E01C006369002BFBD10020002CE6D0C2
:100A7000A3682B4209D1E36829001A685B680292D7
:100A80000193039302A8236898472469EEE7C046C0
:100A9000300400082C040008FF004200180400087D
:100AA000194B1B68190004C9C96F51180968016204
:100AB00019000831C96F5218126842621A00413297
:100AC0001278002A1FD09A68E0321268D2061AD52E
:100AD000F222DB68D2019A580260F022D2019A58C1
:100AE00042600A4A9A588260094A9A58C260094A82
:100AF0009A580261084A9A584261084A9A58826193
:100B0000074A9B58C3617047C40500080478000079
:100B1000087800000C7800001078000014780000BD
:100B200018780000194B1B681A1D1968D26F8A18B3
:100B3000016A11601A0008321968D26F8A18416A76
:100B400011601A0041321278002A1ED09A68E032F1
:100B50001268D20619D5F0224168DB68D20199509B
:100B600081680B4A9950C1680A4A995001690A4A3A
:100B700099504169094A99508169094A9950C16956
:100B8000084A99500168E83299507047C405000836
:100B900004780000087800000C780000107800004D
:100BA0001478000018780000B023F7B55B055A7878
:100BB00007002126002A01D05E78F6B2624D6B68EC
:100BC000002B00D07CE0FFF788FA6B680090002BC8
:100BD00000D088E05D4C22681300AC3319880723ED
:100BE0004B43126A9B181A68002AFCDADB68DA00A9
:100BF00020D51B0F1B0756480193FFF751FF55499E
:100C0000212E00D074E0902022680001131DDC6FBB
:100C100013681C1923680B40034323601300083337
:100C20001268DB6FD3181A68114008431860484BEC
:100C3000019A13438022454E9205316813430A00FE
:100C4000AC321088072200244243096A5218D3604C
:100C500054605368FFF7C0FE80235B0098425CD16C
:100C6000380000F05DFB32681300AC3319880723AD
:100C70004B43126A9B181A68002AFCDADF68FB00F3
:100C800003D538010009FFF74DFF334B32681F4091
:100C90001300AC33198807234B43126A00989B1842
:100CA0000022DF605A60FFF71CFA002C0FD16B683E
:100CB000002B03D008210120FFF79AFE2000FEBD83
:100CC00001210800FFF794FE041E00D17BE76B684A
:100CD000002B03D002210120FFF78AFE1F4B9C420C
:100CE000ECD01F4CEAE704210120FFF781FE71E7F9
:100CF000802220685200031DDC6F03681C192368E2
:100D00000B4013432360030008330068DB6FC318F4
:100D1000186801400A431A6089E732681300B0334B
:100D20001B68126A9B181B68002B0ADB04230D4A00
:100D300011690B431361012F01D030BF93E720BF2E
:100D400091E7064C8FE7C04630040008C405000850
:100D5000F0030008FF00FFFFFFFFFFDF0500420078
:100D6000FF00420000ED00E0C02280200649520052
:100D70008B58C0059B009B0803438B5080238858E9
:100D80001B0603438B5070470000264010B562B627
:100D9000034800F0C7F80020FFF706FFFBE7C04656
:100DA0000020001010B50020FFF770FB10BD704749
:100DB00010B50020FFF754FD002829D0154B18600E
:100DC000154B1B681A1D1C68D36FE4182168090EA7
:100DD000013100F0CDF8114B18602168090AC9B241
:100DE000013100F0C5F80E4B441E18600D4920007B
:100DF00000F0BEF8FA210C4B013018708900200079
:100E000000F0B6F8094B01301860094BC0031860B8
:100E100010BDC04684000008C40500088800000812
:100E20008000000840420F00940000089000000875
:100E30008C00000810B52048FFF796F9B022E02199
:100E400030201E4CD200A35889005B005B08A350E1
:100E500063588343635080235B04A350184B194AA3
:100E6000E250A02204339201E250FF22164BE250DE
:100E7000FFF77AFFC02201215200A3588B43A350F1
:100E8000FFF795FFFFF794FF104B03201A6813003C
:100E9000AC33198807234B43126A80219B18002228
:100EA000DA605A600A4AFFF739FB0A48FFF714FA7A
:100EB0000948FFF745FA10BD301300100000264026
:100EC00084050000010002008C050000C405000834
:100ED0008003000844040008E41300109023034A30
:100EE0005B01D058032318407047C04600002040E3
:100EF00010B59024FFF7F1F8074B64011A59074920
:100F00001140074A0A431A51102259681142FCD075
:100F1000FFF7E7F810BDC04600002040FCFF0000CE
:100F20000100FA05F8B590250E4C6D010700FFF79A
:100F3000D4F863590600DB439B0701D1FFF7D8FFC4
:100F400080239B00E7506359074A1A40074B13431D
:100F50006351102362681A42FCD03000FFF7C1F8D9
:100F6000F8BDC04600002040FCFF00000300FA0569
:100F7000002243088B4274D303098B425FD3030AD8
:100F80008B4244D3030B8B4228D3030C8B420DD3EB
:100F9000FF22090212BA030C8B4202D31212090279
:100FA00065D0030B8B4219D300E0090AC30B8B42B7
:100FB00001D3CB03C01A5241830B8B4201D38B0365
:100FC000C01A5241430B8B4201D34B03C01A52410A
:100FD000030B8B4201D30B03C01A5241C30A8B424D
:100FE00001D3CB02C01A5241830A8B4201D38B0238
:100FF000C01A5241430A8B4201D34B02C01A5241DC
:10100000030A8B4201D30B02C01A5241CDD2C3094D
:101010008B4201D3CB01C01A524183098B4201D3C9
:101020008B01C01A524143098B4201D34B01C01AB4
:10103000524103098B4201D30B01C01A5241C3082C
:101040008B4201D3CB00C01A524183088B4201D39B
:101050008B00C01A524143088B4201D34B00C01A87
:101060005241411A00D20146524110467047FFE7F3
:1010700001B5002000F006F802BDC0460029F7D0F7
:1010800076E770477047C046002B11D1002A0FD178
:10109000002900D1002802D00021C943081C07B450
:1010A000024802A14018029003BDC046D9FFFFFFCD
:1010B00003B4684601B5029800F030F8019B9E46E3
:1010C00002B00CBC7047C046F0B5CE46474615048A
:1010D0002D0C2E0080B50704140C3F0C9946030C10
:1010E0007E435D43674363437F19340CE4199C4698
:1010F000A54203D980235B029846C4444B46434330
:101100005143250C36046544360C2404A4195B199C
:10111000591820000CBC90469946F0BDF0B54F46DA
:101120004646D646C0B5040082B00D0091469846AA
:101130008B422FD82CD04146484600F0CFF82900EA
:101140000600200000F0CAF8331A9C46203B9A465D
:1011500000D576E04B46524693401F004B46624610
:1011600093401E00AF4228D825D05346A41BBD4152
:10117000002B00DA7BE00022002300920193012380
:10118000524693400193012362469340009318E036
:101190008242D0D900220023009201930A9B002BA7
:1011A00001D01C605D600098019902B01CBC9046A3
:1011B0009946A246F0BDA342D7D90022002300924F
:1011C00001936346002BE9D0FB079846414672081D
:1011D0000A437B0866460EE0AB4201D1A2420CD81E
:1011E000A41A9D41012024196D410021013E2418BB
:1011F0004D41002E06D0AB42EED9013E24196D417F
:10120000002EF8D100980199534600196941002B2E
:1012100023DB2B005246D3402A006446E2401C00E8
:1012200053461500002B2DDB26005746BE403300E9
:1012300026006746BE403200801A99410090019115
:10124000ACE7624620239B1A4A46DA406146130007
:1012500042468A4017001F4380E7624620239B1ABC
:101260002A0066469A402300F3401343D4E76246BF
:10127000202300219B1A0022009101920122DA40D2
:10128000019280E72023624626009B1ADE402F0051
:10129000B0466646B74046463B003343C8E7C046C3
:1012A0001C2101231B04984201D3000C10391B0A96
:1012B000984201D3000A08391B09984201D300095A
:1012C000043902A2105C40187047C04604030202B1
:1012D00001010101000000000000000010B500291C
:1012E00003D1FFF7DDFF203002E0081CFFF7D8FF35
:1012F00010BDC04603001218934200D17047197008
:101300000133F9E7F8B5C046F8BC08BC9E46704703
:10131000F8B5C046F8BC08BC9E4670470000000007
:1013200001B40248844601BC604700BF6102000866
:1013300000002040000024400000004000000000A9
:1013400000002340000030400000314000009F407A
:10135000000022400000104020202020201010100B
:101360001D1D800017007500FF03060206360410DD
:10137000200000007FC0000000040000000000000A
:101380000019324B647D00804000080B1000000003
:101390000000FF012002001F00800004FF08101859
:1013A000001000140018001C4044484C500000007D
:1013B00008100000080000000400000004100000F5
:1013C00000120000042100000021000000160000AF
:1013D00040114002C41300138013A013200000002A
:1013E0001C000000030000000100000001000000DC
:1013F0000000000005036000040000000100000080
:101400000000000001000000060460000800000069
:10141000A4050008A50D00100000000000FDFF7FDE
:101420000100000000000010000000088000000023
:101430004414001080000008F8020000B003000807
:101440001802000000093D0000127A0000093D006A
:101450000000D007A00F000004000000A900001049
:101460008100001080B230B5C00020D0104B0722A0
:101470001C682300AC331B885A43236AD3181968AD
:101480000029FCDA3E210B4B062519600A4B0B495B
:101490001960A3210A4BC9005D500A495850585899
:1014A000206A1218002050605A58002AFCDA30BD19
:1014B000C405000804012640080126401E1F000044
:1014C000000026401C05000010B54378FF2B11D109
:1014D00000F0ECF80400032000F018F9C3685A6823
:1014E000012311681943116011681942FCD12000D1
:1014F00000F0F4F810BDF7B500900020019100F065
:1015000005F93F4D06002B681A004C33B0321468C1
:101510001B780419002B5AD000F0E8F807000328C4
:101520001BD000F0C3F8374A374B0500D358002BC7
:101530003EDA364A0121300000F0C0F8002837D1E9
:101540000198FFF78FFF009B002B3ED02368002BF4
:10155000FCDB00F0EBF804002BE0062000F0D6F8EE
:101560002B68B0331B68C0180368002B02DA284CC4
:101570002000FEBD002000F0C1F8264B9842F6D0B6
:101580000023254A19001268012000F09FF8002569
:10159000A842ECD1002000F0B1F81E4A1F4B904247
:1015A00003D09D42E3D00135F4E79D42B9D1DEE797
:1015B000174C032F05D10121002000F0AFF80028BF
:1015C000F9D1280000F08AF8D2E7154CF1E700F0D5
:1015D0006DF80E4A05000121300000F06FF8002878
:1015E00009D1009B002B08D02368002BFCDB00F006
:1015F0009DF80400E5E7064CE3E7094CE1E7C04647
:10160000C4050008000026401C050000CC030008AB
:101610000500520001018800DC030008F0490200C7
:1016200001005000184BF7B51B68184A5C6804238A
:1016300011690B431361012824D030BF2300FC3310
:101640001B69002B1DD1A320114B1249124AC00067
:101650000F681E5815680195104D0D6006251D5028
:101660003E2010600E483E351D501D58002DFCDAFE
:101670000C48FC3420610F60A321C9005E50019B1F
:101680001360F7BD20BFD9E7C405000800ED00E0F6
:101690000000264008012640040126401E1F0000CD
:1016A0001C050000AAAAAAAA0000000001B4024872
:1016B000844601BC604700BFDB00001001B4024853
:1016C000844601BC604700BF9D02001001B402487F
:1016D000844601BC604700BFA903001001B4024862
:1016E000844601BC604700BFE300001001B402481B
:1016F000844601BC604700BFDD0E001001B4024803
:10170000844601BC604700BFD905001001B40248FF
:10171000844601BC604700BF7501001001B4024857
:10172000844601BC604700BF6505001001B4024853
:10173000844601BC604700BF390200100000000071
:101740000000000000000000000000000000000099
:041750000000000095
:020000041000EA
:1020000000F80F08E32500100D0000005524001013
:102010005B24001061240010672400100000000001
:102020000000000000000000000000001D2500105E
:102030003926001000000000B5250010C52500104D
:102040003F2600103F2600103F2600103F260010BC
:102050003F2600103F2600103F2600103F260010AC
:102060003F2600103F2600103F2600103F2600109C
:102070003F2600103F2600103F2600103F2600108C
:1022E00000F002F80FF06CFF0AA090E8000C8244A6
:1022F0008344AAF10107DA4501D10FF061FFAFF283
:10230000090EBAE80F0013F0010F18BFFB1A43F0D3
:1023100001031847708E0900B08E09000A4410F8B6
:10232000014B14F00F0508BF10F8015B240908BF2A
:1023300010F8014B6D1E05D010F8013B6D1E01F821
:10234000013BF9D1641E03D0641E01F8015BFBD18F
:102350009142E4D370470000103A24BF78C878C196
:10236000FAD8520724BF30C830C144BF04680C609B
:10237000704700000023002400250026103A28BFE3
:1023800078C1FBD8520728BF30C148BF0B607047E7
:102390006E2900F07783702900F05D8466292CF0A7
:1023A000238465292CF0208467292CF01D84612961
:1023B0002CF01C8403681B0A28BF41F080016929A6
:1023C00000F02483642900F02183752900F01E8326
:1023D0006F2900F0EB83782900F02984E92901F0C6
:1023E0007186E42901F06E86F52901F06B86EF29EC
:1023F00000F0E883F82900F028840368DB0928BF8F
:1024000041F08001632901F03A86732901F03F868B
:10241000E32901F04A86F32901F04F860020704736
:102420001FB52CF0CCFB9DE8030001F0D0F901F0C2
:10243000B1F90400002000212BF04CFD401C60602D
:10244000002000212BF05CFDE06002F0E7F801F0D5
:1024500085F91FBD4FF0100308E04FF0200305E0A1
:102460004FF0300302E04FF0400300BFEFF308806D
:102470004FF0040172460A4201D0EFF309809C46F6
:10248000254B196802680A60043142680A60043109
:1024900082680A600431C2680A600431F0C14746AC
:1024A0000F6004314F460F60043157460F6004310E
:1024B0005F460F60043102690A60083142690A60B0
:1024C000043182690A600431C2690A60043103463A
:1024D00020334FF40076324200D0043375464FF07B
:1024E0001006354200D148330C46103C2360EFF310
:1024F00009820A600431EFF308820A6004317246EF
:102500000A600431EFF314820A606046024B1968D6
:1025100018F0DAF8FEE70000540A03101EF0040F6A
:102520000CBFEFF30880EFF30980816911F8021CFA
:1025300091BB01B590E80F10E047BDE800508CE872
:102540000300244B93E80600914208BF704741B94D
:102550001EF0100F10D12049086820F0010008601B
:102560000AE02CE9F00F1EF0100F08BF2CED108AC6
:10257000C1F838C081F822E01A6092F82210906BFE
:1025800061F0FF0E1EF0100F08BFB0EC108AB0E82B
:10259000F00F80F309887047104A13689942FAD8FF
:1025A00001B552F821C00FC8E047BDE80050CCF893
:1025B0000000704701B51AF07DFBBDE80140EFF364
:1025C000098CBEE701B51AF09EFEBDE80140EFF3AD
:1025D000098CB6E7CC24000834EF00E07C0C031033
:1025E0007047AFF3008072B6154916484FF4387241
:1025F0000B680360001D091D521E002AF8D1114806
:1026000011490860BFF34F8F10488047104880473A
:10261000FEE7FEE7FEE704207146084203D0EFF331
:10262000098000F002F8EFF3088005F0C1FAF2E744
:10263000F1E7F0E7EFE7FEE7FEE7FEE7FEE7FEE79C
:10264000002000100020000808ED00E07D8400104C
:10265000E122001000000000801C800803D0401C14
:10266000801EFCD100BF7047EFF3108072B6704738
:1026700080F310887047704710B501F08BF8001D8B
:1026800010BD00BF51B802000FF0C2BD0844401E8B
:10269000491E884370470821001DF7E72DE9F041E6
:1026A00017460E460446FFF7F6FFA042054633D90B
:1026B000002F1CBF06F10C000FF0DEFD30467468E1
:1026C000F4B12168A94217D305F1080291423CBF39
:1026D0006168416007D3626861194A602268521BD1
:1026E0000A6041602560002F1CBF06F10C000FF04E
:1026F00051FE201DBDE8F08120466468002CE0D129
:102700002946304601F04FF80028D7D1002F1CBFD2
:1027100006F10C000FF03EFE0020BDE8F08110B580
:10272000044601F032F801682046BDE8104001225D
:10273000B4E770B516460D46041F002808BF70BDEB
:10274000002E1CBF05F10C000FF096FD2B465868BB
:10275000002818BFA04238BF0346F8D31968CA182A
:10276000A24218BF5C6003D122681C461144196064
:1027700021680A19824218BF606004D14268626011
:10278000006808442060002E1CBF05F10C000FF00B
:1027900001FE70BD10B5044600F0F7FF0168204649
:1027A000BDE810400122C4E753EA020C00F0698042
:1027B0002DE9F04B4FF00006002B1FBFB3FA83F555
:1027C00003FA05F424FA05F65E4012BF1643B2FA86
:1027D00082F502FA05F4C5F120051EBF22FA05FCB8
:1027E00044EA0C04203556EA044C4FEA144418BF5E
:1027F000641C4FF000084FF00009904271EB030C8D
:1028000039D3002919BFB1FA81F701FA07F6B0FAF6
:1028100080F700FA07F6C7F120071EBF20FA07FC71
:1028200046EA0C062037B6FBF4FCA7EB0507103F81
:1028300007F01F0BCBF120062CFA06F60CFA0BFB67
:1028400044BFB3460026202FA4BF5E464FF0000BC6
:102850005BEA060C08BF4FF0010B19EB0B0948EBC4
:102860000608ABFB027C06FB02CC0BFB03CCC01BB7
:1028700071EB0C01C1E70B46024641464846BDE8F4
:10288000F08B13B5084318BF4FF0FF300146AFF38C
:102890000080BDE81C4070477CB51D4616460C0004
:1028A000009001D02044401E074B7B442A466946D5
:1028B0000190304601F0B9FB05461CB10020694685
:1028C00001F0C6FB28467CBDAD1700000FB40449DB
:1028D00010B503AA029802F067F810BC5DF814FB6B
:1028E000C42500080FB41CB5084B06AA7B446946F2
:1028F0000090059801F099FB04460020694601F01C
:10290000A7FB20461CBC5DF814FB0000611700000B
:102910000FB47CB50C0009AA009001D02044401EE1
:10292000084B7B4469460190089801F07EFB054600
:102930001CB10020694601F08BFB28467CBC5DF889
:1029400014FB00003517000070B504468569006867
:10295000C10601D5302600E02026C00707D070BD93
:10296000D4E9012130469047206A401C20626D1E48
:10297000F6D570BD70B5044685690078C00707D1EB
:1029800070BDD4E9012120209047206A401C2062BC
:102990006D1EF6D570BD09684A0501D540B2704775
:1029A000C905FCD500B2704709684A0501D5C0B217
:1029B0007047C905FCD580B2704770B50C46054616
:1029C000012A05D02878800600D5EA69002302E0B4
:1029D000012305E05B1C934202D2E05C0028F9D1A0
:1029E000A869E618C01AA861286A1844286228460F
:1029F000FFF7AAFF04E0D5E9012114F8010B904785
:102A0000B442F8D32846FFF7B5FF70BD2DE9F04179
:102A10000646002410687529314616A510D0FFF728
:102A2000BAFF002802DA404213A507E031688A079E
:102A300001D512A502E0490704D511A5012401E042
:102A4000FFF7B2FF00210A2206F1240709E0B0FBDC
:102A5000F2FCB0FBF2F302FB1C0030307854184655
:102A6000491C0028F3D123462A463046BDE8F041F0
:102A700000F0F0BE000000002D0000002B00000060
:102A80002000000011680268006A530501D5087033
:102A90000AE0D30501D5088006E0130603D5C21766
:102AA000C1E9000200E00860012070472DE9FF5FE6
:102AB00015468A460446DFF8AC80F8440027D8E97A
:102AC00000103E46CDE9001010E03AF816106A46B4
:102AD00002A801F087FE411C07D02178890603D5A2
:102AE000E269391891420DD80744761C2078800697
:102AF00002D5E069B84205DDAE42E6DB3AF81600E1
:102B00000028E2D1A069C01BA0612046FFF71CFF8E
:102B1000D8E90010CDE90010002017E03AF81810AD
:102B20006A4602A801F05EFEB0F1FF3F81460BD07D
:102B300000250DF1080B05E0D4E901211BF8050083
:102B400090476D1C4D45F7D308F10100B042804617
:102B5000E4DB206A384420622046FFF70BFFBDE823
:102B6000FF9F00002EC2020030B4002100F12404B7
:102B700008E002F00705D208303542EA4372DB086C
:102B80006554491C52EA0305F3D10468002310A2DE
:102B9000250708D504F020040C4304D0C4690123A0
:102BA0000CA2641EC46130BC00F054BE10B50446D3
:102BB00021461068FFF7F8FE02462046BDE81040A7
:102BC0000023D1E7D21D22F00701D1E90023CBE792
:102BD0000000000030000000F0B40D460188090537
:102BE00002D5214C7C4402E01F4C7C440E34002171
:102BF00000F1240608E002F00F071209E75D42EA3F
:102C000003721B097754491C52EA0307F3D1027877
:102C10000023120704D5702D06D009B10223113408
:102C20002246F0BC00F016BE01231034F8E770B560
:102C300004460D4621461068FFF7B6FE02462946B7
:102C40002046BDE870400023C6E7D21D22F00703EE
:102C5000D3E90023C0E70368126843F02003036050
:102C60000823C3610023B7E70CC102002DE9F05F20
:102C7000894604464FF0000ADFF874B1FB44C0F8FF
:102C800020A02046E1688847002874D0252806D077
:102C9000D4E901219047206A401C2062F1E7002618
:102CA0005F462046E16888472028054607DB312D2E
:102CB00005D2781910F8200C08B10643F1E7B007E7
:102CC00001D526F00406C4F81CA00027C4F818A0FB
:102CD0002A2D09D028462BF05EF838B304EB87087C
:102CE000303DC8F8185019E059F8041B204604EB91
:102CF00087029161E1688847012F054618D1E06994
:102D0000002820DA26F020061DE0D8F8180000EB95
:102D1000800005EB40003038C8F818002046E16814
:102D2000884705462BF037F80028EED1012F0AD04E
:102D30002E2D08D12046E16888477F1C0546022FCA
:102D400046F02006C4DBA069002803DA404246F0C2
:102D50000106A061F00701D026F010066C2D0BD003
:102D6000682D09D04C2D39D06A2D35D0742D35D031
:102D70007A2D33D016E038E0E1682F4620468847A8
:102D8000B842054609D16C2F26D04FF48060E16827
:102D9000064320468847054604E06C2F1AD04FF4BE
:102DA000807006430DB3A5F14100192802D82035E3
:102DB00046F400664A462946204626604E46FFF7FE
:102DC000E7FA80B101280BD0F61D26F0070000F1CC
:102DD000080956E74020E4E78020D8E70020D6E73E
:102DE00006F104094DE7284652E7206ABDE8F09F46
:102DF0009CC0020070B50646FFF746FC0468054615
:102E000030460A22002100F002F82C6070BD2DE946
:102E1000F04791460F4680460446002614F8015BB1
:102E20002DB1FFF729FC0068405DC007F6D12B2DBE
:102E300002D02D2D18D0641E4A463946204601F096
:102E4000ADF927B13968A14201D1C7F800804FF030
:102E5000020471050BD54042002803DDFFF714FC86
:102E60000460A007BDE8F08746F48066E4E7002828
:102E7000F8DAFFF709FC04606FF00040F2E70000A9
:102E80002DE9F041044616460D464769007B800750
:102E90002ED038460FF0AFFA50BB3EB3012E02D011
:102EA000022E25D104E0204600F066F805441DE01E
:102EB00038460FF08CFAE168002841F01001E1601B
:102EC00005DA204601F0FEFA0120BDE8F081C903D1
:102ED0000BD56268E16A914200D81146A26911449B
:102EE0002269891A814200DD08460544002D01DA75
:102EF0000220EAE7E16A6068E268814206D2910353
:102F0000E06203D522F4003141F01002A6690027E7
:102F1000AE4213DCE16A814201D90B4600E0034670
:102F200003EB060C2369ACEB030CAC4506DD8142D8
:102F300001D98C4600E084469C4505D1A7602760F6
:102F400042F02000A5620DE0AD1BE669AE1B814298
:102F5000A66000D90846C01A281A20605819606077
:102F600022F0200003490840E060002084F8487007
:102F7000ABE70000BFCFD7FF10B50146C26890078E
:102F800003D0900607D5886A0AE0FFF77DFB012190
:102F90000160881E10BD8B69486818440B69C01A0F
:102FA00091F848301BB191F84910401A10BD110337
:102FB000FCD50028FADD401E10BD0000014900F0DC
:102FC00029B80000C42500082DE9F04704464FF059
:102FD00000094FF0FF37C568D4E90486A80707D079
:102FE000204601F0A3FA30460FF0EEF9002802DA8D
:102FF0003846BDE8F087280502D54046FFF7CAFBF2
:103000004C21204600F013FB206D20F001002065CC
:103010004846EEE770B50C46064601F14C052846D9
:103020000FF02AF9214630462AF0C8FE0446284609
:103030000FF0B0F9204670BD2DE9F041044600F1D3
:103040004C0738460FF018F9E068810712D0800667
:1030500001D5A66A04E0A169606808442169461A9E
:10306000204601F063FA0022054631462046FFF76C
:1030700007FF00E0002538460FF08CF92846BDE830
:10308000F0812DE9F04118B1BDE8F041FFF7D4BF60
:103090000B4E002530460FF0EFF80A4C6F1E07E08C
:1030A0002046FFF7C9FF00B13D46206D20F0010426
:1030B000002CF5D130460FF06DF92846DFE700000F
:1030C00090230008702500082DE9F0471646884631
:1030D000070010D006F14C0081460FF0CDF83046C5
:1030E000FFF772FF18F8010B61280DD0722805D088
:1030F000772841D105E00020BDE8F08701250024B4
:1031000005E00225042402E0082448F2020518F82C
:10311000010B2B2806D0622809D018F8010C74285E
:103120000AD00BE045F0030544F00204EFE745F058
:10313000040544F00104EAE744F01004384621464F
:103140000FF05BF9411C17D00021316171604FF421
:103150000071F560F1617061200704D530460222EC
:103160000021FFF78DFE306D40F0010030654846CC
:103170000FF010F93046BFE70026F8E72DE9F041DF
:1031800015460E460746214C20460FF075F82A4694
:1031900031463846FFF798FF054620460FF0FAF80B
:1031A0002846BDE8F0812DE9F0410E468046174DD6
:1031B00028460FF061F8164C206DC10704D0410875
:1031C00004D020F00104F7E7224612E05420FFF774
:1031D000A6FA070017D0206D47F0010108435421DB
:1031E0002065384600F023FA07F14C000FF080F814
:1031F0003A4631464046FFF767FF044628460FF03F
:10320000C9F82046CDE70024F8E700009023000825
:103210007025000810B5002001F008FBAFF3008016
:10322000BDE8104001200FF0D1B8401ECAB210F81E
:10323000011F8A4202D00029F9D10020704730B521
:1032400003461D781DB10A4603E0AC4201D1181AAD
:1032500030BD12F8014B002CF7D15B1CF1E730B503
:1032600003461D783DB10A4612F8014B1CB1AC4231
:10327000FAD15B1CF5E7181A30BD40EA010310B51E
:103280009B070FD1042A0DD310C808C9121F9C42F6
:10329000F8D020BA19BA884201D9012010BD4FF0E8
:1032A000FF3010BD1AB1D30703D0521C07E0002035
:1032B00010BD10F8013B11F8014B1B1B07D110F892
:1032C000013B11F8014B1B1B01D1921EF1D1184695
:1032D00010BD40EA0103024630B59B0710D14FF004
:1032E000013400E008C208C91D1B9D4315EAC41F34
:1032F000F8D013F0FF0102F8011B0DD01B0AF8E70C
:1033000011F8013B002B02F8013B05D011F8013BFD
:10331000002B02F8013BF3D130BD10B5431C02E095
:1033200010F8011B71B18107FAD14FF0013202C8C8
:103330008C1A8C4314EAC211F9D0C01A0A0603D0C1
:10334000C01E10BDC01A10BD0A0401D0801E10BDE1
:103350000902FCD0401E10BD40EA010370B59B0776
:103360002ED14FF00136042A2AD308C810C99D1B5C
:103370009D43121F15EAC61517D0D8B2E1B2401A04
:1033800050EA056110D198B2A1B2401A50EA054145
:103390000AD123F07F4024F07F41401A50EA0521F2
:1033A00002D1180EA0EB146070BDA342DBD018BA96
:1033B00021BA884201D9012070BD4FF0FF3070BDA5
:1033C0000AB9002070BD10F8013B11F8014B63B140
:1033D000A3420AD1521E08D010F8013B11F8014B4C
:1033E0001BB1A34201D1521EEDD1181B70BD032A9F
:1033F00040F2308010F0030C00F0158011F8013B12
:10340000BCF1020F624498BF11F801CB00F8013BF8
:1034100038BF11F8013BA2F1040298BF00F801CBBC
:1034200038BF00F8013B11F0030300F06780083A51
:10343000C0F0088051F8043B083A51F804CBA0E8EA
:103440000810F5E7121D5CBF51F8043B40F8043B3F
:10345000AFF30080D20724BF11F8013B11F801CB74
:1034600048BF11F8012B24BF00F8013B00F801CB45
:1034700048BF00F8012B7047431A28BF9A427FF6D5
:10348000B6AF10441144032A40F2268010F0030F17
:103490001EBF11F8013D521E00F8013D10F0030F50
:1034A0007FF4F6AF11F0030300F06D80083AC0F02E
:1034B0000B8051F8043D083A51F804CD40F8043D22
:1034C00040F804CDFFF7F3BF121D5CBF51F8043D77
:1034D00040F8043DAFF30080D20724BF11F8013D4E
:1034E00011F801CD48BF11F8012C24BF00F8013DAF
:1034F00000F801CD48BF00F8012C704710B5203A04
:10350000C0F00B80B1E81850A0E81850B1E818508E
:10351000A0E81850203ABFF4F5AF5FEA027C24BF60
:10352000B1E81850A0E8185044BF18C918C0BDE849
:1035300010405FEA827C24BF51F8043B40F8043B12
:1035400008BF7047D20728BF31F8023B48BF11F8C7
:10355000012B28BF20F8023B48BF00F8012B704721
:10356000431A28BF9A427FF6C9AF1044114410F0A5
:10357000030F1EBF11F8013D521E00F8013D10F06F
:10358000030F7FF4F6AF103AC0F00A8010B531E9AE
:10359000185020E91850103ABFF4F9AFBDE81040B8
:1035A000530724BF31E9081020E9081044BF51F83F
:1035B000043D40F8043D12F0030F08BF7047D207E6
:1035C00028BF31F8023D48BF11F8012C28BF20F870
:1035D000023D48BF00F8012C704702F0FF0343EAA8
:1035E000032242EA024200F024B84FF0000204290C
:1035F000C0F0128010F0030C00F01B80CCF1040C22
:10360000BCF1020F18BF00F8012BA8BF20F8022B55
:10361000A1EB0C0100F00DB85FEAC17C24BF00F8FB
:10362000012B00F8012B48BF00F8012B70474FF029
:10363000000200B5134694469646203922BFA0E802
:103640000C50A0E80C50B1F12001BFF4F7AF09070E
:1036500028BFA0E80C5048BF0CC05DF804EB8900FF
:1036600028BF40F8042B08BF704748BF20F8022B42
:1036700011F0804F18BF00F8012B704710B50446B9
:1036800010F0030F08BF11F0030F40F015804FF04A
:10369000013E121FC0F20E8051F8043BA3EB0E0C4A
:1036A0002CEA030C1CEACE1C08BF40F8043BF0D007
:1036B000A1F1040102F10402521E08DB11F8013BE2
:1036C00000F8013B002BF7D11146FFF78EFF204693
:1036D00010BD00000000000030B44FF0013C50F875
:1036E000042B51F8043BCCFA52F4D51A20D1FCB982
:1036F00050F8042B51F8043BCCFA52F4D51A17D1E8
:10370000B4B950F8042B51F8043BCCFA52F4D51A52
:103710000ED16CB950F8042B51F8043BCCFA52F49A
:10372000D51A05D1002CDAD030BC4FF0000070471C
:1037300029BAB1FA81F111F01801D1F120008440C9
:10374000F2D1CA40CB4012F0FF0213F0FF0330BCAD
:10375000D01A7047704770477047000070B5064C2C
:103760007C44064D7D4404E02046016808448047BF
:10377000241DAC42F8D170BD9C7B0900B87B0900C8
:10378000004870476C260008704710B5FFF7F8FF37
:10379000083010BD10B5FFF7F3FF203010BD7047A3
:1037A00070477047704738B504460A46002069469E
:1037B000AFF30080002808BF38BD024600992046BC
:1037C00001F042F8012038BD012001F040BCF8B5FD
:1037D000AFF30080054600200C46102000BF0646CF
:1037E000A819A0420DD9324669460020AFF30080E7
:1037F000070008BF01F02BFC0098A04218BF054647
:10380000C419FFF7C2FF05600746F01D20F007004E
:103810004619284600F00AF8B44208BFF8BDA21BBA
:1038200031463868BDE8F84001F00EB8002101606B
:10383000C0E901100C300EF05BBD1020704710B5D0
:10384000FEF722FF006810BD10B50446FEF71CFF0E
:10385000046010BD2DE9F0470D4699469246044696
:1038600000F124080168880604D5E06921F0100100
:10387000216000E00120A84201DD471B00E0002795
:10388000A1697A1902EB0900081AA0612078C00624
:1038900002D42046FFF758F8002608E0D4E90121B9
:1038A0001AF806009047206A401C761C20624E459C
:1038B000F4DB2078C0060AD52046FFF745F806E07D
:1038C000D4E9012130209047206A401C2062381E34
:1038D000A7F10107F4DC07E0D4E9012118F805009D
:1038E0009047206A401C2062281EA5F10105F3DCE8
:1038F0002046FFF73FF82078000602D50220BDE8F9
:10390000F0870120FBE72DE9FF4F0C461E464FF0E4
:10391000FF378BB0D2E90001DDF860800A908A465B
:10392000C1F30A5505B93D46002108464FF0000095
:10393000BAF1000F00F4400005DA00EB80004FF40C
:10394000400101EA50004FEA9059B9F1010F00DD42
:10395000B9460A9850EA4A000ED044F61050A5F233
:10396000FF3545432F14B8F1000F1ED07542291EB4
:103970001EDDC9F100021CE0B8F1010F4FF000009C
:1039800001D0302103E0F24305E02154401CB04255
:10399000FBDB30460022002121540B99C1F808803E
:1039A000C1E900200FB0BDE8F08FBD1B6D1CDEE744
:1039B0004A4600DA694206A801F092FA06AB93E89B
:1039C000070003AB83E8070050460A9928F09AFBEA
:1039D0008DE80700A0F500501F3800900398002DD7
:1039E0000ADD42F21F014A460844002303A903905E
:1039F000684628F045FE09E0A0F500504A461F3809
:103A0000002303A90390684628F064FE8DE80700B0
:103A10000004000C03D04FF0FF30410800E01046D6
:103A2000B8F1000F03D00022009215461EE0751E6B
:103A300005D400F02BFF303262556D1EF9D5B34628
:103A40000122084302D000227F1C04E020783028A5
:103A500001D100227F1E002A099784D01DE0112D7C
:103A600007DA00F013FF303262556D1C50EA010294
:103A7000F5D1084302D00098C8B10EE00021681EBD
:103A800005E0235C625C63542254401E491C814261
:103A9000F7DBAB46A81B401E0990002004F80B0082
:103AA0000B98099AC0F80880C0E9002B7AE7112624
:103AB0004FF0000857E72DE9F04F88460446D21D25
:103AC00022F0070191B0D1E90001CDE90A0128F007
:103AD00052FF02460B98C00F01D02D2007E020684E
:103AE000810701D52B2002E0202101EAC000032A32
:103AF000099001D0072A05DB03464146204600F025
:103B000013FF0BE12078800601D5E06900E0062074
:103B1000B8F1650F814606D0B8F1660F18D0B8F13C
:103B2000670F70D131E00020B9F1110F009001DB77
:103B3000112301E009F101030AAA01A90CA8FFF76A
:103B4000E2FEDDE90C70002609F10105834647E03D
:103B500001204B4600904FF000470AAA01A90CA88B
:103B6000FFF7D1FEDDE90DB00C995D46002610B9D6
:103B700009F101000D18B9EB050003D4C0F1FF36BF
:103B800009F10105A5EB09002BE0B9F1010F01DAFC
:103B90004FF001090020B9F1110F0090484601DDF6
:103BA000112300E003460AAA01A90CA8FFF7ABFE07
:103BB000DDE90C704D4600268346207800070AD4C4
:103BC000AB4500DA5D4601A8012D04DD411911F86D
:103BD000011C302907D04F4502DA17F1040F04DA2F
:103BE000012082460FE06D1EEEE7002F02DCED1B88
:103BF0003E4403E0781CA84200DD7D1CB81B00F1A8
:103C0000010A4FF000472078000703D4AA4501DBE2
:103C10004FF0FF3A0021B7F1004F0DF143088DF846
:103C2000431024D002202B23002F01DA7F422D23C2
:103C30000A21021EA0F1010000DC5FB197FBF1FC3C
:103C400097FBF1F201FB1C7C17460CF1300C08F8D5
:103C500001CDEEE7A8F1010003702188090501D527
:103C6000452100E06521A0F1010800F8011C099838
:103C70000FA9A1EB0807FF1D00B10120411901EBBD
:103C8000EA70A1693844081A401EA0612078C00675
:103C900002D42046FEF758FE099828B1D4E9012144
:103CA0009047206A401C20622078C00622D520461A
:103CB000FEF74AFE1EE0002E04DBB34502DD01A83C
:103CC000805D00E03020D4E901219047206A401C4B
:103CD0002062761CAAF101005FEA000A0AD1FFF710
:103CE00059FDC0680168405CD4E901219047206A11
:103CF000401C2062281EA5F10105DCDC07E0D4E9A8
:103D0000012118F8010B9047206A401C2062381EE0
:103D1000A7F10107F3DC2046FEF72CFE032011B0CB
:103D200041E600002DE9F04F04460D46D21D22F079
:103D3000070089B0D0E900974846394628F01BFEB5
:103D40000246F80F01D02D2307E02068810701D536
:103D50002B2302E0202101EAC0038DF820300BB1B3
:103D6000012000E00020032A824601D0072A04DB5C
:103D70002946204600F0D8FD3FE12078800601D496
:103D80000D2500E0E569C7F30A560D2D49DA00213B
:103D90004FEA175B08464FF00000002F00F4400088
:103DA00007DA00EB80004FF4400100EBD07001EA2D
:103DB00060008115012901DD4FF0FF3100224FEA3B
:103DC000850CBCF1180F06D31346ACF118004FF068
:103DD0008052C24003E04FF4801323FA0CF30CF13D
:103DE0000C0CBCF1200F04D3ACF1200C09FA0CF040
:103DF00001E007FA0CF000294FF0004801DD18B986
:103E00000FE00ED140450CD319EB02095F4121B9F7
:103E1000404502D19F4329EA0209BBEB175F00D05E
:103E2000761C2088000502D57B48784402E07A4859
:103E30007844193808AA302302F80A30037C0AF1C2
:103E40000101002E0AF1020A53546A4602DC4FF0C7
:103E5000300101E04FF031014FF001088DF8001002
:103E600002D0A6F2FF3603E059EA470100D06B4EBC
:103E7000002D02DC2178090704D54FF002082E211D
:103E80008DF80110C44600210BE0C7F303433F0146
:103E9000C35C491C6D1E02F80830052908F10108B1
:103EA00001DA002DF1DC00210CE000EB1973491C54
:103EB0001B786D1E082902F808304FEA091908F12D
:103EC000010801DA002DF0DC21688B0602D516E02E
:103ED000A8F10108E04505DD02EB080313F8013CF9
:103EE000302BF5D0B8F1000F09DD02EB080313F811
:103EF000013C2E2B03D1090701D4A8F10108002DA4
:103F000005DD3E2102F808106D1E08F10108407C15
:103F1000002E02F8080008F1010804DA2D2076428C
:103F200002F8080002E02B2002F808000A214FF4F2
:103F30007A70864208F101080BDB96FBF0F3303310
:103F400002F8083096FBF0F308F1010800FB136655
:103F500001E0642E0CDB642096FBF0F3303302F8B2
:103F6000083096FBF0F308F1010800FB136601E04E
:103F70000A2E06DB96FBF1F0303002F8080008F15B
:103F8000010896FBF1F001FB1060303002F80800E8
:103F9000A16908F1010808EB050202EB0A00081A02
:103FA000A0612078C00602D42046FEF7CDFC216A2D
:103FB00008AE01EB0A00206204E0D4E9012116F802
:103FC000010B9047BAF1010AF7D22078C00602D55A
:103FD0002046FEF7B9FC6E4609E016F8010B3E28B4
:103FE0000FD0D4E901219047206A401C2062B8F12B
:103FF0000108F2D22046FEF7BDFC09B00320BDE85F
:10400000F08F206A2844206203E0D4E901213020A7
:1040100090476D1EEBD3F8E7D5AF020002FCFFFF1F
:1040200001694A1C02610878704700B58FB0CDE97C
:1040300001310021059105497944CDE9031011466C
:104040006846FEF713FE0FB000BD0000E5FFFFFF5E
:104050000A6802F8010B0A607047D1E900239A420E
:1040600002D2531C0B601070704710B5436913B136
:10407000AFF3008001E0FEF7A0FC012010BD127834
:1040800000F124010A7000224A700122EDE7116854
:104090004FF0FF32E9E710B5436913B1AFF3008089
:1040A00001E0FEF703FD012010BD128800F124019C
:1040B00082840022C2840122EDE711684FF0FF32B2
:1040C000E9E700002DE9F0418046D21D22F0070209
:1040D0000025D2E90002F52915A614D0011E72F1BF
:1040E000000106DA0023D0EB030063EB020211A605
:1040F00008E0D8F800108B0701D50FA602E04907A9
:1041000001D50EA601251146002408F1240704E07C
:1041100000F0BCFB30323A55641C50EA0102F7D182
:104120002B46324621464046BDE8F041FFF792BBA0
:10413000000000002D0000002B0000002000000007
:104140003A2800D2303820F02002412A01D3A2F1CF
:104150003700884201D34FF0FF307047426842B1C8
:10416000016811F8013B23B1521EC0E90012184644
:1041700070470121C160881E704742685AB1C36808
:10418000016843B983688B4205D0491E521CC0E9BF
:104190000012002070474FF0FF3070472DE9F05FAC
:1041A000824615468B4600270AF10104B94600787D
:1041B000302801D09DB113E014F8010B01277828B5
:1041C00003D0582801D045B10AE00DB1102D07D118
:1041D000002714F8010B102502E0082500E00A254D
:1041E0000026B0460EE005FB080005FB06F101279E
:1041F0001FFA80F801EB1046B6F5803F00D3B946B0
:1042000014F8010B2946FFF79BFF0028EBDABBF1FE
:10421000000F05D00FB1641E00E05446CBF80040FB
:10422000B9F1000F06D0FEF72FFA02210160C81E77
:10423000BDE8F09F48EA0640FAE700000FB40B0023
:1042400010B54FF000048AB00FA900910E99CC6010
:10425000234C7C44234A7A44CDE9064200D004230F
:104260006FF00042CDE901321F4A7A446B46089252
:10427000024600202AF01CFD0AB010BC5DF814FBB9
:10428000F0B507464FF0FF301E4615460C463B463C
:1042900085B06A460091CDE90101314600200490C5
:1042A00004A8FFF7CBFF04990346601825B109B1B4
:1042B000024600E022462A6000290ED0002B02DDD3
:1042C0000099814209D03B466A463146001B009462
:1042D000CDE9010404A8FFF7B1FF05B0F0BD00006F
:1042E00007FFFFFF21FFFFFFA90600002DE9F047B0
:1042F00005460C46C86820F4201040F48000C860D1
:10430000800602D5084600F034F9E06841F28201E7
:104310004FF0FF390140022903D0204600F0D2F8C7
:10432000B5E000F42041B1F5004F0FD1C00306D530
:104330006168E06A884200D80846606006E020694B
:10434000E062606060690EF042F8A061A06800223F
:10435000EEB200280DDAE1688B050AD4C043A060F4
:1043600041F490302260E0606068411C616006703A
:10437000A5E0E0689046226040F40050E0602069CB
:1043800068BB60690EF037F8012704F12405A0B17D
:10439000A08910F4407F08D0E069FEF7C0F92061E1
:1043A00018B1E06840F4006016E0E7612561E0685C
:1043B00020F4407040F480600EE0E069FEF7AFF951
:1043C00000282061F1D0E06840F4006010F4407FE4
:1043D000E06002D140F48070E06020696060E068D5
:1043E00025696FF0010AC1051FD56168E06A88423E
:1043F00000D80846411B04D02246284600F06CF83D
:10440000F0BBE068010203D5E562C4E9015854E05D
:10441000691CE1626160E16940F48030491EC4E9D1
:10442000021030462E70BDE8F087010202D500F47C
:1044300080320AE06068411C61600670E0680A2E04
:1044400040F48030E06006D00022E16A606881427A
:1044500003D90B4602E00122F7E70346A7895B1B5D
:104460007F0503D4E7699F4200DDE2B1814200D8B5
:104470000146E5620F1AC4E90158002B09DD00E08E
:1044800005E022461946284600F026F808B14846BD
:10449000C9E747B1A069E5626560C01BA061E0683B
:1044A00040F01000E060E068000208D56168A06993
:1044B000E562491B08446560A0615046B3E7304699
:1044C000B1E70000C16821F4001141F08001C16032
:1044D00000218160016070472DE9F0478146144654
:1044E0000E464FF0FF383248D5685769054209D06B
:1044F0003846A1690DF0C6FF002811DB2C48C043E7
:104500000540E5602B463246494638460DF0BEFF71
:10451000A16920F00042B21A11440028A16103D021
:104520002046FFF7CFFF4046BDE8F08770B5044650
:104530000569C06A6168884200D80846E16821F4CC
:104540002011E160C90312D5A84208D02246411BC0
:104550002846FFF7C1FF10B14FF0FF3070BD0020BB
:10456000E562C4E90150E06820F48030E06000209A
:1045700070BD10B50446C06820F02000E060A16A5C
:10458000A06988420DD02046FFF7D0FFE06820F4F4
:10459000405040F01000E060A06AA0612069E06235
:1045A000606044F24001E0688843E06010BD0000B4
:1045B000100002002DE9F04704461E4690460D46C5
:1045C000C7684C3081460DF057FEB80714D078020A
:1045D00012D44046B8F5807F09D0B0F5007F06D0F0
:1045E000B8F5806F08D1012604F1240506E0701E9D
:1045F0006FF07F41884201D3012409E02561E66123
:104600006560E06820F4706040EA0800E060002423
:1046100048460DF0BFFE2046BDE8F08710B565485E
:104620005421FFF704F864485421FFF700F8634869
:104630005421FEF7FCFF62485E49624A624B01600A
:104640005D4810605D4A1A60431C0B65511C016592
:104650000120106557484C300DF04AFE56484C304A
:104660000DF046FE55484C300DF042FE57480DF017
:104670003FFE58484F4A56A17844FEF77FFD20B9C7
:10468000544878440A3800F0DBFC54484A4A52A1A6
:104690007844FEF773FD20B9504878440A3800F09A
:1046A000CFFC4F48454A4CA17844FEF767FD20B93E
:1046B0004B4878440A3800F0C3FC40233D48DC00F6
:1046C00000212246FFF776FF20B142487844543853
:1046D00000F0B6FC3848224640230021FFF76AFF6D
:1046E00020B13E487844543800F0AAFC33482246B2
:1046F00010230021FFF75EFF002806D038487844D9
:10470000BDE81040563800F09BBC10BD2B482DE989
:10471000F041006D2D4E20F0010430460DF0ACFD4F
:10472000244D4C3528460DF0A7FD2248FEF74CFCE1
:1047300028460DF02FFE28460DF0B8FD1E4D4C35D5
:1047400028460DF099FD1C48FEF73EFC28460DF06A
:1047500021FE28460DF0AAFD184D4C3528460DF0D7
:104760008BFD1648FEF730FC28460DF013FE284658
:104770000DF09CFD14E0206D20F0010504F14C00CB
:1047800007460DF079FD2046FEF71EFC38460DF079
:1047900001FE38460DF08AFD2046FDF7FBFF2C4652
:1047A000002CE8D130460DF0F5FD08480DF07EFDF7
:1047B000BDE8F08170250008C4250008182600080F
:1047C00084230008882300088C2300089023000815
:1047D0007200000038BE02007700000027BE020011
:1047E00000BE02002DE9F04116460C460546FDF7D5
:1047F00043FF036893F80101012807D0FF2C12D86A
:10480000185D80B101202C70BDE8F081D3F807015C
:104810003246214603F20713C7182846BC46BDE8B6
:10482000F041002360474FF0FF30EDE710B500F096
:10483000EFFBBDE8104000F0E5BB801A0844401EC5
:10484000491E88431044704770B5144605468C468F
:104850004368002B18BF634538BF1846F8D3026879
:104860001044604508D06646604604220821FFF7E0
:10487000E4FF811B8446641A2946CCF80040BDE859
:10488000704000220CF10400FDF753BF30B5B0F1C9
:104890000A0271F100034FEA900E4EEA817EB0EBFE
:1048A0000E0061EB91014FEA101E4EEA017E10EB03
:1048B0000E0041EB11114FEA102E4EEA016E10EB83
:1048C0000E0041EB11214FEA104E4EEA014E10EB63
:1048D0000E0041EB1141401841F100014FEAD000B8
:1048E00040EA41704FEAD1014FEA810444EA9074F2
:1048F00010EB800544EB01046D1944EB0404521BDA
:10490000A3414FF0000348BF0A3200D530BD401C20
:1049100041F1000130BD10B50446FDF7ADFE006861
:10492000005D00F0010010BD2DE9F0411F46044676
:1049300003260168072A01F4006004DB08B116A50C
:1049400005E016A503E008B115A500E015A521F0C6
:1049500010002060A069C01EA0610FB1401EA061C0
:104960002046FDF7F1FF4FB1D4E9012138469047C9
:10497000206A401C2062C01C206206E0206AFAE720
:10498000D4E9012115F8010B9047761EF8D2204694
:10499000FDF7F0FFBDE8F0814E414E006E616E0004
:1049A000494E4600696E66002DE9F04114460D46F9
:1049B000074601F14C0630460DF05EFC094B7B4486
:1049C000224629463846FFF730FB0446287B00067E
:1049D00001D54FF0FF3430460DF0DCFC2046BDE839
:1049E000F0810000FB9302002DE9FF4F06468BB0DB
:1049F0000878FF2806D0491C2D2805D000244FF048
:104A0000000908E000200CE00124F8E709EB890325
:104A1000491C00EB43090878FF28F7D114B1C9F10C
:104A200000008146107800252C46AA4629462D28EC
:104A300001D02B2804D1521C2D2813D000208246EF
:104A40008B461078FF280FD04FF0000C0A21521C23
:104A5000A5FB017804FB018105FB0C11C5194BEB8B
:104A60000104EEE70120EAE7002108464FF00000CC
:104A7000BAF1000F02D000EB80004008C0F381576C
:104A8000012F01DD4FF0FF370E9955EA040009EBC5
:104A900001080BD04FF0020918F5FA7F16DA4FEA39
:104AA000CA70002F706008DD012007E04FEACA706D
:104AB000C6E900B00FB0BDE8F08F00203060FDF710
:104AC000E3FDC0F800901821084616E0B8F5FA7F1B
:104AD00018DD002F02DAF748784401E0F648784400
:104AE000D0E90010C6E9001040EACA707060FDF716
:104AF000CBFDC0F80090142108460FB0BDE8F04F80
:104B00002AF06FB8002108464FF00000B8F100010C
:104B1000099002DAC7F1000200E03A4601DAC8F172
:104B2000000106A800F0DCF906AB93E8070003AB30
:104B300083E8070044F23E005BEA04010090584617
:104B400004D144F21E012C465D460091210C09045B
:104B5000014306D10099240444EA15442D04103978
:104B6000009104F07F41014306D10099240244EAF8
:104B700015642D020839009104F07041014306D1FB
:104B80000099240144EA15742D01091F009104F0D5
:104B90004041014306D10099A40044EA9574AD0058
:104BA000891E009104F00041084304D100986D195A
:104BB0006441401E00904FF001033A466846B8F148
:104BC000000FCDE9014503A902DD27F098FD01E0C2
:104BD00027F06BFDBAF1000F04460D4601D084F0BA
:104BE0000044002108464FF00000099940F2FF7789
:104BF000484010F00C0F07D124F00040284303D0A8
:104C0000C4F30A50B84212D1FDF73EFDC0F800903F
:104C1000C4F30A50B8420AD1A8487844D0E9001039
:104C2000C6E9001004F000410843706042E7C6E99D
:104C300000543FE72DE9FF4F1F464FF0000A4FF0A9
:104C4000FF38454691B0D7E90146CDF83CA0FEF7C4
:104C5000A1FDC0680168405C1090B96912986D1C94
:104C60008847396A814688470028F6D1B9F1FF3F65
:104C70000AD0002E24F4D06411DDB9F12B0F08D036
:104C8000B9F12D0F0BD102E0404615B013E744F403
:104C90008064B96912986D1C8847761E814660054C
:104CA00004A901D52D2000E02B20002E01F1010BDD
:104CB0000DF130088DF810003FDDB9F1690F08D013
:104CC000B9F1490F05D0B9F16E0F02D0B9F14E0F0D
:104CD0001CD13B4601A8009580E85002DDE9121284
:104CE0006FF0020029F0E8FFC11CCED10EE0B969D7
:104CF00012986D1C884781461398761E44F4007400
:104D000005600F98401C002E0F9016DDB9F1300F92
:104D1000EDD0B9F1780F02D0B9F1580F0DD10F983D
:104D200001280AD13B46CDE90054DDE91212001FEB
:104D3000029629F0BFFFC11CA7D1109989453ED129
:104D400044F0800406E01399681CAAF1010A44F4B7
:104D500000740860B9696D1C1298761E8847302867
:104D60008146F0D02BE01099894505D1200603D467
:104D7000761E44F0800418E0484629F00CF808B389
:104D8000761E0DF123029345A9F1300044F400741E
:104D900006D20BF8010B200607D5AAF1010003E0AB
:104DA000200602D40AF101008246A00502D513991B
:104DB000681C0860B96912986D1C88478146002EEE
:104DC000D1DC53E0002E51DDB9F1650F02D0B9F10D
:104DD000450F4BD1A00549D5B9696D1C1298761EB7
:104DE00024F440748847002E81460CDD2B2804D023
:104DF000B9F12D0F07D144F48074B96912986D1C74
:104E00008847761E8146E00501D52D2100E02B2143
:104E100008F8011BCDF8008021E0761E0DF1390164
:104E2000884544F400740CD2A9F1300010F0FF0062
:104E300088F8000002D10099884509D908F10108D5
:104E400006E0E00501D51E4801E042F20F708246FF
:104E5000B96912986D1C8847814613980560002E29
:104E600004DD484628F097FF0028D6D1F96912984A
:104E70008847FF2053468BF8000088F80000002088
:104E80000A900B9004AA0CA90AA8FFF7ADFDA00593
:104E900002D46FF00100F8E614F0240F12D0E007FE
:104EA0001CD13868DDE90A12031D3B600068C0E9C7
:104EB000001213E0F0660900E2660900A665090029
:104EC000F1D8FFFF0AA9684628F052FFE00705D194
:104ED0003868009A011D3960006802602846D4E6EF
:104EE0002DE9F047814616468AB0354878440DC80A
:104EF0008DE80D0032487844801C03AC0DC884E86E
:104F00000D0041F69B300844372190FBF1F290FBF5
:104F1000F1F5A5F1800501FB12041B3C02D56442AA
:104F2000012000E00020DFF898A080460027FA4426
:104F3000AAF1BE0A0EE0E0070AD03246684607EB47
:104F4000470101230AEB810127F0C4FB8DE807002C
:104F500064107F1C002CEED1194F7F44AE3F19E046
:104F6000E80715D007EB04100DF1180A90E80E00C1
:104F70008AE80E00C068F04201D1981908903246C4
:104F8000012306A903A827F0A5FB03AB83E80700CC
:104F90006D10641C002DE3D14FF0010332466946C9
:104FA000B8F1000F03A802D027F06AFB01E027F058
:104FB00091FBC9E90001C9F808200AB0BDE8F087F3
:104FC000AC9F020070B504460D4D28460DF054F913
:104FD00003E028F0F3FE401C0ED0094914F8010B41
:104FE0004C390028F5D10A2028F0E8FE044628466E
:104FF0000DF0D0F9204670BD4FF0FF34F7E7000008
:1050000010260008002801D00DF0E0B9704700001C
:1050100010B5002102A000F03CF8012010BD0000F6
:10502000534947414252543A2041626E6F726D615A
:105030006C207465726D696E6174696F6E0000003A
:1050400010B500F03FF8BDE81040FFF7DBBF10B52A
:1050500000F052F8BDE81040FFF7D4BF10B5FEF7DE
:1050600094FB0068BDE8104000F06EB8B2F1200378
:105070000AD5C2F1200301FA02F120FA03F341EA52
:10508000030100FA02F0704700FA03F14FF000004C
:10509000704770B505460C460A2000E06D1C0DF007
:1050A000A9FA35B128780028F8D102E0641C0DF087
:1050B000A1FA14B120780028F8D1BDE870400A2088
:1050C0000DF098BA10B5014602A0FFF7E2FF0120EB
:1050D00010BD000053494752545245443A2052658E
:1050E0006469726563743A2063616E2774206F701F
:1050F000656E3A200000000010B5012805D000219F
:1051000003A0FFF7C6FF012010BD09A1F8E70000CA
:1051100053494752544D454D3A204F7574206F66A0
:105120002068656170206D656D6F72790000000008
:105130003A2048656170206D656D6F727920636FEC
:10514000727275707465640010B50C300DF0AEF8B5
:1051500010BD00002DE9FF4F1F464FF03C0987B0FE
:105160004FF00042DDE9141001F10108DDF858A00C
:1051700002EA40500390002005908346054604460D
:105180000490B969461E08988847AAF1010A02905E
:10519000BAF1000F3BDD02982E2815D01021FEF742
:1051A000CFFF00282EDB4FF0010B0599014317D0EC
:1051B000B9F1000F0BDB4A46C117FFF757FF054354
:1051C0000C43A9F1040905E0012004900BE008B1AB
:1051D00045F0010501200590049820B9361D02E034
:1051E000049800B1361FB969089808F1010888478A
:1051F000BBF1000FAAF1010A0290C9D00999C1F8C8
:105200000080C5E70298702808D0502806D0F969B8
:1052100008988847BBF1000F14D04FE0002002909F
:105220000120BBF1000F049009D0B969089808F17A
:1052300001088847AAF10109B9F1000F07DCF969F3
:10524000089888476FF001000BB0BDE8F08F2B285D
:1052500004D02D280CD14FF0FF300490B969089884
:1052600008F101088847A9F10109B9F1000FE6DD4D
:10527000411CE4D00A21FEF763FF0028DFDB02991E
:1052800008F1010801EB810100EB41000290B969CE
:10529000089888470A21FEF753FF099AA9F10109E6
:1052A000B9F1000FC2F8008001DD0028E7DAF969E2
:1052B000089888470499029800FB016655EA0400A3
:1052C00004D004F04041090002D006E0039898E0C1
:1052D000A40044EA9574AD00B61E04F00041080035
:1052E00002D16D196441761E159810F0240F03D079
:1052F0004FF00B095C4803E04FF028096FF07D0088
:105300008246564507DAAAEB06018944B9F1410FF6
:1053100001DD4FF0410901200021A9F10102FFF751
:10532000A5FE024628400B462140084301D001213A
:1053300000E00021501E029143F1FF31284021403E
:10534000084301D0012000E000200299834651EA81
:105350000B014FD0002108464FF00000039900F4E4
:10536000400039B100EB80004FF4400100EBD070F9
:1053700001EA60008015012802DD4FF0FF3000E0F7
:1053800013D0401C36D0029860B3BBF1000F0CD193
:105390004A4601200021FFF769FE284021400843CA
:1053A00001D0012000E00020E0B101204A460021A8
:1053B000FFF75CFE034640190A4661412D1A8C41F5
:1053C00011D3B9F1400F09DD159810F0240F02D068
:1053D000AAF1340603E0AAF1170600E0761C0025C6
:1053E0004FF0004406E05B1E42F1FF3220EA030565
:1053F00021EA0204CAF10100B04206DA1B4903980F
:1054000008430190002000900EE0039AC4F3D321DA
:10541000E80A0A43164940EA44500A433146CDE9B6
:105420000002684628F0ADFC159810F0240F0BD050
:105430001598C00715D13868DDE90012031D3B60DF
:105440000068C0E900120CE002A8694628F090FC50
:105450001598C00705D13868029A011D39600068A7
:1054600002604046F0E6000002FCFFFF0000F07F13
:105470000000F03F2DE9FF4F92461D4685B04FF0EA
:105480000041DDE9124BDDE914727F1E01EA4B5049
:10549000414940F0FF4940EA0108002122F0200084
:1054A0004928049102D04E2828D04CE03BA0012688
:1054B00007C88DE80700A9690698641C88477F1E05
:1054C000014606D41DF8060018B121F020018142E2
:1054D0000BD0E96906988847032E34D0082E32D0C5
:1054E0006FF0010009B0BDE8F08F761C032E01D0EB
:1054F000082EE0D1601CCAF80000DCE7A969069814
:10550000641C88477F1E2AD420F02000412826D121
:10551000A9690698641C88477F1E20D420F02000CB
:105520004E281CD1A9690698641C88477F1E48F440
:10553000002849F48009CAF8004001D4282806D080
:10554000E969069888475FEACB7012D022E0A96922
:105550000698641C88477F1E01D4002803DAE96995
:1055600006988847BCE72928F1D1641CCAF8004096
:10557000E9E71BF0240F07D028680499031D2B606E
:105580000068C0E9001805E02868021D2A6000686C
:10559000C0F800902046A5E70000F07F494E46493C
:1055A0004E495459000000004FF200424EF6585147
:1055B0004EF65850C0F60F02C0F60101C0F60100C9
:1055C000914218BF08464FF20041C0F60F0118BFC4
:1055D0001146FCF725BF10B5002180224FF0605323
:1055E000044600F0EFF92046002180224FF050538E
:1055F00000F0E8F92046002180224FF0405300F0EF
:10560000E1F92046002180224FF0305300F0DAF912
:105610002046002180224FF0205300F0D3F920468D
:10562000002180224FF0105300F0CCF920460021D9
:1056300080224FF0005300F0C5F92046002180225F
:105640004FF0E05300F0BEF92046002180224FF0D9
:10565000C05300F0B7F92046002180224FF0A0533C
:1056600000F0B0F92046002180224FF0805300F076
:10567000A9F92046002180224FF0406300F0A2F9F2
:105680002046002180224FF0006300F09BF9204665
:10569000002180224FF0806300F094F92046002121
:1056A0008022002300F08EF945F2787145F2747083
:1056B000C0F60001C0F600000968006891F82910E2
:1056C00080080D22202938BF0C22904040F07053F2
:1056D000204600218022BDE8104000F073B945F259
:1056E0007871C0F60001096891F829200021202A6C
:1056F00045F27472016028BF8160C0F6000200208C
:105700001160704710B545F27871C0F60001D1F80C
:1057100000E004469EF8290040F2745CC1F2030CDC
:1057200040F220532028624645F27071C1F2030313
:1057300038BF1A46C0F600011F280A6006D80321A8
:10574000C8F20001216003F1340214E021684FF631
:10575000FF72C7F6FE721140012221604FF48251A0
:10576000C0F20202625021680CF1340241F00041A3
:1057700021600321A160116801220A5145F2747170
:10578000C0F60001096861B94FF40041202838BF14
:105790004FF48041DEF8480021448200204600F0AA
:1057A0001DF82046FFF717FF002010BD45F2787066
:1057B000C0F60000006840F2745290F8290040F2F0
:1057C0002051202845F27070C1F20302C0F600009B
:1057D000C1F2030138BF0A460260704770B5144633
:1057E00045F27072C0F6000212680B26002AC0F261
:1057F00032066CD049B944B945F27871C0F600015F
:105800000968136D8D6C1918AC0000295FD0631EF8
:105810000025B5EBD33F5AD1B4F5805F0BDAB4F570
:10582000806F14DAB4F5807F21D0B4F5007F4ED1BB
:105830004FF4FC4C26E0B4F5804F0FDAB4F5805FEE
:1058400018D0B4F5005F42D14FF4C04C1AE014D028
:10585000B4F5006F3BD14FF4F04C13E0B4F5004FBA
:105860000ED0B4F5804F32D14FF4804C0AE04FF4A3
:10587000FE4C07E04FF4E04C04E04FF4F84C01E03C
:105880004FF0000C45F27875C0F600052D6895F8CC
:105890002950202D38BF43F6FF730B4217D1202D1E
:1058A00031BF0C2341F2884340F803C00D23926BB3
:1058B00000261150A108994041F070530021802228
:1058C00000F080F845F27470C0F6000004603046C5
:1058D00070BD0000B0B504460020C3F20310C4F848
:1058E00080023F20C4F884020020C4F8C002C4F83B
:1058F000C8020120C4F8D0024FF00110049DC4F882
:10590000E002C4F8A01220461946C4F8A42200F010
:10591000A7F820466021002200F092F845F270704E
:10592000C0F600000068016862585206FCD4C069E5
:105930000021005928600020C4F88412B0BD000086
:10594000B0B584460020C3F20310CCF880023F209B
:10595000CCF884024FF0000E01244FF00110CCF877
:10596000C0E2CCF8C8E2CCF8D042CCF8E002CCF8E7
:10597000A012CCF8A422CCF88832DCF8840280078C
:1059800040F20100C0F2320019D045F27071CCF83B
:105990009042C0F600010A68049913685CF803405D
:1059A000DCF88452B4F1FF3F05F0030401DC002C65
:1059B000F4D124B1D06950F80C0008600020CCF874
:1059C00084E2B0BD70B545F27075C0F60005D5F83B
:1059D00000C0BCF1000F04D0DCF8385055F800E0EE
:1059E00001E04FF0000EDCF80850DCF8504000BF3A
:1059F000465906F00F06062EFAD843EA0262DCF892
:105A00000C301A5019B921188E4508BF70BDDCF84A
:105A1000081000BF4258D203FCD545F27871C0F699
:105A20000001096891F82920DCF80010202A03D22F
:105A300042581206FCD402E04258002AFCD170BD44
:105A400045F27072C0F60002D2F800C0DCF80830EF
:105A5000C2581207FCD4DCF80C200906115070471C
:105A600045F27072C0F60002D2F800C0DCF80830CF
:105A7000C25802F00F02062AFAD8DCF80C204FF0C8
:105A800080431350DCF80C2011507047082900D3D4
:105A900001BE102A00D301BE70B5DDF810C0022B84
:105AA00000D301BEBCF1200F00D301BED0F800E04E
:105AB00001248C4003F001032EEA04048B402343AD
:105AC00045F2787E0360C0F6000EDEF800408D00DF
:105AD00094F879400F262358AE4002F00F02B343EA
:105AE000AA401A430829225000D301BE1CF0E00F3F
:105AF00000D001BEDEF800200429D2E90523A0EB86
:105B000003006FF00F0303EAD00010446FF01F0290
:105B100002EBC10234BFCA00043001681F23934066
:105B200099430CF01F0303FA02F21143016070BDA8
:105B300001230028C0F25A0300F01281002A00F06D
:105B40000F81082900D301BE2DE9F0431368022B11
:105B500000D301BE5368102B00D301BE137A202B53
:105B600000D301BED368042B00D301BE1369022BFE
:105B700000D301BE5369022B00D301BE9369022BEF
:105B800000D301BED369042B00D301BE136A022BDC
:105B900000D301BE536A022B00D301BE936A022BCD
:105BA00000D301BED36A042B00D301BE136B082BB4
:105BB00000D301BE1368082900D301BE022B04D212
:105BC00023B901238B40436003E001BE01238B40D6
:105BD00083605368082900D301BE102B00D301BE97
:105BE00045F2787CC0F6000CDCF800604FEA810ECC
:105BF00096F879400F26255806FA0EF603F00F03A3
:105C0000B54303FA0EF32B432350137A082900D32C
:105C100001BE13F0E00F00D001BEDCF800406FF0D1
:105C20000F06D4E905450329A0EB050506EAD505CD
:105C30002C440BD82568CE001F27B74003F01F0364
:105C4000BD43B3402B432360D4680FE06FF01F06C1
:105C5000656806EBC1061F27B74003F01F03BD436D
:105C6000B3402B436360D468092902D24FF0010886
:105C700002E04FF0000801BE042C00D301BEDCF8A6
:105C800000304FEA410993F878600325375805FA48
:105C900009F504F0030427EA050504FA09F42C4386
:105CA00034501669B8F1000F00D101BE022E00D3A6
:105CB00001BE856901248C4006F00106A5438E4093
:105CC000354385615569082900D301BE022D6FEA6D
:105CD000040800D301BEDCF8007005F0010597F858
:105CE0007A3097F87B6097F87CC01F588D4007EAA0
:105CF00008073D431D5009F1100303259D40375807
:105D00002C4327EA0404D2E9065705F0010505FAF9
:105D100001F1214307F0030404FA03F3194331505E
:105D200002F120065CF8001078CE126B03F001033C
:105D300064F3410305F0010443EA840306F003041D
:105D4000520143EAC403D2B21A440EF47E7321F026
:105D5000FF019A40114300234CF80010BDE8F043C6
:105D60001846704745F27872C0F600021268D2F801
:105D7000B0201258B2F1FF3FC2BF0120C0F28A002A
:105D80007047B1F5803F00D301BE89B24160002069
:105D9000704701B901BE45F27872C0F60002126880
:105DA000D2F8B0201258B2F1FF3FC2BF0120C0F2BA
:105DB0008A007047C0680860002070470368B3F12C
:105DC000FF3FC2BF0120C0F28A007047B1F5803F9B
:105DD000C26000D301BE89B281600020704745F2E5
:105DE0007C71C0F600010A6802B170470860704714
:105DF0002DE9F04745F27C77C0F60007D7F800C0E0
:105E0000BCF1000F02D101BED7F800C045F278788E
:105E1000C0F600082C27D8F8006000FB07C55FFA21
:105E200083F9474396F82E404CF80790C3F3072EAA
:105E30002F461B0CAA4647F804EFA1454AF8083F35
:105E400004D301BED8F80060D7F800E0336AB6F892
:105E5000AC4009FB04332B61D8F8004094F82F3094
:105E60009E4502D301BED8F80040236ADAF80060EC
:105E700003EB4E172C23089C00FB03C307F580554A
:105E8000B6F5803F5D6101D301BE01BEC6EA06469C
:105E900041F208057E510027C3E90672196224B158
:105EA0002C22218800FB02C08181BDE8F08770B5FB
:105EB00082B004460020019004B901BE206900B9F7
:105EC00001BE606900B901BE206A00B901BE606907
:105ED000C668B6F5803F28D34FF6FF7126EA010168
:105EE0000160006845F27870C0F600000168206922
:105EF000D1F8B0100958B1F1FF3F16DC01A9FFF746
:105F000048FF08B100250CE00198E3690268D1B2AE
:105F10008B424FEA124504D9226A52F8211001B18E
:105F2000884720692946FFF71DFFB0B268B1626952
:105F3000616A1060106819B188470020606202E051
:105F4000A06A00B180470020A0616069006802B0CB
:105F500070BD45F27C72C0F60002116809B901BE3D
:105F600011682C2200FB0210FFF7A1BF2DE9F043BE
:105F700083B0044600B901BEA069082800D301BE61
:105F8000E06A00B901BE206B00B901BE45F278712C
:105F9000C0F600010968A78A8D8EA669D4E90803B6
:105FA000A26AE16A2F44D4E90398ADF8047001AF06
:105FB00002960097FFF71CFF0026484600210022AA
:105FC00043460096FFF714FF216B384601F093FD1E
:105FD000BDF9040000280BD400F01F01012202FAD1
:105FE00001F14EF200124009CEF2000242F82010F8
:105FF00003B0BDE8F083B9B9B2B945F27872C0F622
:106000000002116891F82E30834201D801BE116858
:106010000A6AB1F8AC10002301FB002045F2A07120
:10602000C0F6000108600EE040F20313C0F28A03DC
:1060300049B142B142F27C33C0F6000319601946FF
:106040005A6000F002B818467047F0B581B040F2CF
:106050000116C0F28A060C46002906F1020124D07E
:1060600045F27872C0F60002126892F82E30834230
:106070001BD92368DF0618D1116AB2F8AC2045F2AB
:10608000A07702FB00156068C0F60007D9083D60E4
:10609000FDF7CDFA28460021FFF764FE386800219D
:1060A0002246FFF78BFE314610B1084601B0F0BD25
:1060B00038680021FFF756FE002818BF3046F5E784
:1060C00010B50446FCF7D0FAA16A012262F39F7171
:1060D000A162A16A022262F39F71A16280F310881B
:1060E00000206060A060E06020616061A061E0610C
:1060F000206210BD01220028C0F2D60245D000293E
:1061000043D00A7A12B10A8802B901BE4A7A12B1A2
:106110004A8802B901BE8A79202A00D301BE0A79D1
:10612000042A00D301BE4A79042A00D301BECA79E9
:10613000042A01D301BECA790B681204C3608B79AB
:1061400040F2000C42EA03620B7AC1F6017C02EADB
:106150000C0203F03F0342EA830CCA7A4B7A002A0E
:106160004A794CEA832318BF43F4006302F0030C1E
:106170008A7A097943EA0C2301F00301002A18BF47
:1061800043F008031943002201611046704745F2AD
:106190007871C0F600010860704745F27872C0F669
:1061A000000211684B6CC340DB0701D101BE1168CE
:1061B000096901EB80204FF48041405800F00F0046
:1061C000704700000146006800280AD4D1F8A002F8
:1061D0000028FBD4086840F0004202200A6001F069
:1061E000DFBC7047102904D200EB8100D0F8800199
:1061F00001E001BE002000B270470000002800F05E
:10620000C380002900F0C6802DE9F04F0A6841F2F2
:106210000813C0F2DF031A4200D001BE4A684FF6ED
:106220000163C2F230031A4200D001BE8A6812F044
:10623000FC2F00D001BECA6812F0FC2F00D001BEB6
:106240000A7D042A00D301BE8A69B2F5803F00D3DB
:1062500001BECA6D082A00D301BE0A6EB2F5803FA6
:1062600000D301BE4A6EB2F5803F00D301BECE68B6
:1062700091E88C0043F000454560076146610F6975
:1062800002F4606487610F7D4CF68828BF07C76100
:106290008F6942F20C794FF6000A40F2000B42F28D
:1062A000CC6603F0040E00F1800C01F11C03002207
:1062B000C7F6886884F46065C0F60009CFF6FF7AF7
:1062C000C0F2712BC0F60006076200BF53F82270BF
:1062D00017EA080F02D001BE53F822704CF8227062
:1062E00053F8227007F001272F43574618BF0027A5
:1062F000BEF1000F08BF774629F812704F6F07EB09
:106300000B047F0094FBF7F424B246F822400132DC
:10631000102ADBD101F15C078CCFC0F81822C0F83D
:106320001022C0F82832C0F82032C0F83872C0F805
:10633000307291F87020B2B18A6EB2F1804F00D302
:1063400001BECA6E4FF60073CFF630731A4201D009
:1063500001BECA6E6FF04043C0F804338B6EC0F8C4
:106360000033C0F84423D0F8002F3F2A02D0D0F8E1
:10637000002F12B90B22C0F8002F096841F4001158
:1063800001600020BDE8F08F01BE19B10120C0F20C
:10639000060070470120C0F2060001BE70470000F1
:1063A00045F25552C0F25512022915D200F5047378
:1063B000D0F81002012900F0010008BF002812D116
:1063C00003E000BF012A0A4604D01868511E10F0ED
:1063D0000100F7D00A4606E001BED0F8101200F521
:1063E000047301F0010020B101201860186800203A
:1063F00070470220C0F206000130002A04BF0220CC
:10640000C0F20600704701B101BEB2F1804F00D367
:1064100001BE022B07D2012B06D1D0F80013114385
:10642000C0F80013704701BEC0F8042370474FF650
:106430000073CFF63073194200D001BE32B1012A89
:1064400003D1D0F84423114304E001BED0F8442323
:1064500022EA0101C0F84413704739B1012904D17F
:10646000416841F480314160704701BE01214162C1
:106470007047000080B58646D0F80803DEF800C3F8
:106480006FF35F20904288BF10465FEA0C7208D419
:1064900080B10246DEF84033013A01F8013BF9D100
:1064A00008E038B1024600BFDEF84033013A21F877
:1064B000023BF9D180BD80B50368082918BF0229C5
:1064C00005D1186840F00040186000200EE0024638
:1064D000FF200129C0F2420018BF80BD51680A6840
:1064E000D20704BF4A685FEAC27200D080BDD3F809
:1064F00008E2D3F808C26FF35F2ECCF3C0321EEB74
:10650000020F04BFD3F808235FEAC252EED1186825
:1065100020F0004018600020486008600862C862EF
:1065200080BD026822F00042026021B10020486074
:1065300008600862C862704708694A69904204D2DC
:106540004A69C9690844801A70474969401A704706
:10655000B0B546F201030028C0F2AA0300F053814F
:10656000002900F050810B78032B00D301BE4B7B38
:10657000023B072B00D301BE8B7B032B01D8012BE1
:1065800000D101BE91F82130022B00D301BE91F859
:106590002830022B00D301BE0B78012B04D84B68A6
:1065A000083B092B06D206E08B7F23B14B68013BE9
:1065B000072B00D301BE8B68053B052B00D301BE22
:1065C0004B69B3F5807F00D301BE8B69B3F5807F43
:1065D00000D301BE8B7C3BB10B7823B98B68092BB0
